{
  "_format": "hh3-artifact-1",
  "contractName": "DomainFactory",
  "sourceName": "contracts/DomainFactory.sol",
  "abi": [
    {
      "inputs": [],
      "stateMutability": "nonpayable",
      "type": "constructor"
    },
    {
      "inputs": [
        {
          "internalType": "address",
          "name": "sender",
          "type": "address"
        },
        {
          "internalType": "uint256",
          "name": "tokenId",
          "type": "uint256"
        },
        {
          "internalType": "address",
          "name": "owner",
          "type": "address"
        }
      ],
      "name": "ERC721IncorrectOwner",
      "type": "error"
    },
    {
      "inputs": [
        {
          "internalType": "address",
          "name": "operator",
          "type": "address"
        },
        {
          "internalType": "uint256",
          "name": "tokenId",
          "type": "uint256"
        }
      ],
      "name": "ERC721InsufficientApproval",
      "type": "error"
    },
    {
      "inputs": [
        {
          "internalType": "address",
          "name": "approver",
          "type": "address"
        }
      ],
      "name": "ERC721InvalidApprover",
      "type": "error"
    },
    {
      "inputs": [
        {
          "internalType": "address",
          "name": "operator",
          "type": "address"
        }
      ],
      "name": "ERC721InvalidOperator",
      "type": "error"
    },
    {
      "inputs": [
        {
          "internalType": "address",
          "name": "owner",
          "type": "address"
        }
      ],
      "name": "ERC721InvalidOwner",
      "type": "error"
    },
    {
      "inputs": [
        {
          "internalType": "address",
          "name": "receiver",
          "type": "address"
        }
      ],
      "name": "ERC721InvalidReceiver",
      "type": "error"
    },
    {
      "inputs": [
        {
          "internalType": "address",
          "name": "sender",
          "type": "address"
        }
      ],
      "name": "ERC721InvalidSender",
      "type": "error"
    },
    {
      "inputs": [
        {
          "internalType": "uint256",
          "name": "tokenId",
          "type": "uint256"
        }
      ],
      "name": "ERC721NonexistentToken",
      "type": "error"
    },
    {
      "inputs": [
        {
          "internalType": "address",
          "name": "owner",
          "type": "address"
        }
      ],
      "name": "OwnableInvalidOwner",
      "type": "error"
    },
    {
      "inputs": [
        {
          "internalType": "address",
          "name": "account",
          "type": "address"
        }
      ],
      "name": "OwnableUnauthorizedAccount",
      "type": "error"
    },
    {
      "anonymous": false,
      "inputs": [
        {
          "indexed": true,
          "internalType": "address",
          "name": "owner",
          "type": "address"
        },
        {
          "indexed": true,
          "internalType": "address",
          "name": "approved",
          "type": "address"
        },
        {
          "indexed": true,
          "internalType": "uint256",
          "name": "tokenId",
          "type": "uint256"
        }
      ],
      "name": "Approval",
      "type": "event"
    },
    {
      "anonymous": false,
      "inputs": [
        {
          "indexed": true,
          "internalType": "address",
          "name": "owner",
          "type": "address"
        },
        {
          "indexed": true,
          "internalType": "address",
          "name": "operator",
          "type": "address"
        },
        {
          "indexed": false,
          "internalType": "bool",
          "name": "approved",
          "type": "bool"
        }
      ],
      "name": "ApprovalForAll",
      "type": "event"
    },
    {
      "anonymous": false,
      "inputs": [
        {
          "indexed": true,
          "internalType": "uint256",
          "name": "domainId",
          "type": "uint256"
        },
        {
          "indexed": true,
          "internalType": "address",
          "name": "owner",
          "type": "address"
        },
        {
          "indexed": false,
          "internalType": "address",
          "name": "opsContract",
          "type": "address"
        },
        {
          "indexed": false,
          "internalType": "address",
          "name": "tokenContract",
          "type": "address"
        }
      ],
      "name": "DomainRegistered",
      "type": "event"
    },
    {
      "anonymous": false,
      "inputs": [
        {
          "indexed": true,
          "internalType": "address",
          "name": "previousOwner",
          "type": "address"
        },
        {
          "indexed": true,
          "internalType": "address",
          "name": "newOwner",
          "type": "address"
        }
      ],
      "name": "OwnershipTransferred",
      "type": "event"
    },
    {
      "anonymous": false,
      "inputs": [
        {
          "indexed": true,
          "internalType": "address",
          "name": "from",
          "type": "address"
        },
        {
          "indexed": true,
          "internalType": "address",
          "name": "to",
          "type": "address"
        },
        {
          "indexed": true,
          "internalType": "uint256",
          "name": "tokenId",
          "type": "uint256"
        }
      ],
      "name": "Transfer",
      "type": "event"
    },
    {
      "inputs": [
        {
          "internalType": "address",
          "name": "to",
          "type": "address"
        },
        {
          "internalType": "uint256",
          "name": "tokenId",
          "type": "uint256"
        }
      ],
      "name": "approve",
      "outputs": [],
      "stateMutability": "nonpayable",
      "type": "function"
    },
    {
      "inputs": [
        {
          "internalType": "address",
          "name": "owner",
          "type": "address"
        }
      ],
      "name": "balanceOf",
      "outputs": [
        {
          "internalType": "uint256",
          "name": "",
          "type": "uint256"
        }
      ],
      "stateMutability": "view",
      "type": "function"
    },
    {
      "inputs": [],
      "name": "domainCounter",
      "outputs": [
        {
          "internalType": "uint256",
          "name": "",
          "type": "uint256"
        }
      ],
      "stateMutability": "view",
      "type": "function"
    },
    {
      "inputs": [
        {
          "internalType": "uint256",
          "name": "",
          "type": "uint256"
        }
      ],
      "name": "domains",
      "outputs": [
        {
          "internalType": "address",
          "name": "opsContract",
          "type": "address"
        },
        {
          "internalType": "address",
          "name": "tokenContract",
          "type": "address"
        },
        {
          "internalType": "address",
          "name": "owner",
          "type": "address"
        },
        {
          "internalType": "string",
          "name": "name",
          "type": "string"
        }
      ],
      "stateMutability": "view",
      "type": "function"
    },
    {
      "inputs": [
        {
          "internalType": "uint256",
          "name": "tokenId",
          "type": "uint256"
        }
      ],
      "name": "getApproved",
      "outputs": [
        {
          "internalType": "address",
          "name": "",
          "type": "address"
        }
      ],
      "stateMutability": "view",
      "type": "function"
    },
    {
      "inputs": [
        {
          "internalType": "uint256",
          "name": "domainId",
          "type": "uint256"
        }
      ],
      "name": "getDomainInfo",
      "outputs": [
        {
          "components": [
            {
              "internalType": "address",
              "name": "opsContract",
              "type": "address"
            },
            {
              "internalType": "address",
              "name": "tokenContract",
              "type": "address"
            },
            {
              "internalType": "address",
              "name": "owner",
              "type": "address"
            },
            {
              "internalType": "string",
              "name": "name",
              "type": "string"
            }
          ],
          "internalType": "struct DomainFactory.DomainInfo",
          "name": "",
          "type": "tuple"
        }
      ],
      "stateMutability": "view",
      "type": "function"
    },
    {
      "inputs": [
        {
          "internalType": "address",
          "name": "owner",
          "type": "address"
        },
        {
          "internalType": "address",
          "name": "operator",
          "type": "address"
        }
      ],
      "name": "isApprovedForAll",
      "outputs": [
        {
          "internalType": "bool",
          "name": "",
          "type": "bool"
        }
      ],
      "stateMutability": "view",
      "type": "function"
    },
    {
      "inputs": [],
      "name": "name",
      "outputs": [
        {
          "internalType": "string",
          "name": "",
          "type": "string"
        }
      ],
      "stateMutability": "view",
      "type": "function"
    },
    {
      "inputs": [],
      "name": "owner",
      "outputs": [
        {
          "internalType": "address",
          "name": "",
          "type": "address"
        }
      ],
      "stateMutability": "view",
      "type": "function"
    },
    {
      "inputs": [
        {
          "internalType": "uint256",
          "name": "tokenId",
          "type": "uint256"
        }
      ],
      "name": "ownerOf",
      "outputs": [
        {
          "internalType": "address",
          "name": "",
          "type": "address"
        }
      ],
      "stateMutability": "view",
      "type": "function"
    },
    {
      "inputs": [
        {
          "internalType": "string",
          "name": "name",
          "type": "string"
        }
      ],
      "name": "registerDomain",
      "outputs": [
        {
          "internalType": "uint256",
          "name": "",
          "type": "uint256"
        }
      ],
      "stateMutability": "nonpayable",
      "type": "function"
    },
    {
      "inputs": [],
      "name": "renounceOwnership",
      "outputs": [],
      "stateMutability": "nonpayable",
      "type": "function"
    },
    {
      "inputs": [
        {
          "internalType": "address",
          "name": "from",
          "type": "address"
        },
        {
          "internalType": "address",
          "name": "to",
          "type": "address"
        },
        {
          "internalType": "uint256",
          "name": "tokenId",
          "type": "uint256"
        }
      ],
      "name": "safeTransferFrom",
      "outputs": [],
      "stateMutability": "nonpayable",
      "type": "function"
    },
    {
      "inputs": [
        {
          "internalType": "address",
          "name": "from",
          "type": "address"
        },
        {
          "internalType": "address",
          "name": "to",
          "type": "address"
        },
        {
          "internalType": "uint256",
          "name": "tokenId",
          "type": "uint256"
        },
        {
          "internalType": "bytes",
          "name": "data",
          "type": "bytes"
        }
      ],
      "name": "safeTransferFrom",
      "outputs": [],
      "stateMutability": "nonpayable",
      "type": "function"
    },
    {
      "inputs": [
        {
          "internalType": "address",
          "name": "operator",
          "type": "address"
        },
        {
          "internalType": "bool",
          "name": "approved",
          "type": "bool"
        }
      ],
      "name": "setApprovalForAll",
      "outputs": [],
      "stateMutability": "nonpayable",
      "type": "function"
    },
    {
      "inputs": [
        {
          "internalType": "bytes4",
          "name": "interfaceId",
          "type": "bytes4"
        }
      ],
      "name": "supportsInterface",
      "outputs": [
        {
          "internalType": "bool",
          "name": "",
          "type": "bool"
        }
      ],
      "stateMutability": "view",
      "type": "function"
    },
    {
      "inputs": [],
      "name": "symbol",
      "outputs": [
        {
          "internalType": "string",
          "name": "",
          "type": "string"
        }
      ],
      "stateMutability": "view",
      "type": "function"
    },
    {
      "inputs": [
        {
          "internalType": "uint256",
          "name": "tokenId",
          "type": "uint256"
        }
      ],
      "name": "tokenURI",
      "outputs": [
        {
          "internalType": "string",
          "name": "",
          "type": "string"
        }
      ],
      "stateMutability": "view",
      "type": "function"
    },
    {
      "inputs": [
        {
          "internalType": "uint256",
          "name": "domainId",
          "type": "uint256"
        },
        {
          "internalType": "address",
          "name": "newOwner",
          "type": "address"
        }
      ],
      "name": "transferDomain",
      "outputs": [],
      "stateMutability": "nonpayable",
      "type": "function"
    },
    {
      "inputs": [
        {
          "internalType": "address",
          "name": "from",
          "type": "address"
        },
        {
          "internalType": "address",
          "name": "to",
          "type": "address"
        },
        {
          "internalType": "uint256",
          "name": "tokenId",
          "type": "uint256"
        }
      ],
      "name": "transferFrom",
      "outputs": [],
      "stateMutability": "nonpayable",
      "type": "function"
    },
    {
      "inputs": [
        {
          "internalType": "address",
          "name": "newOwner",
          "type": "address"
        }
      ],
      "name": "transferOwnership",
      "outputs": [],
      "stateMutability": "nonpayable",
      "type": "function"
    }
  ],
  "bytecode": "0x608060405234801562000010575f80fd5b50336040518060400160405280600b81526020016a2d32b834102237b6b0b4b760a91b815250604051806040016040528060048152602001635a444f4d60e01b815250815f9081620000639190620001a6565b506001620000728282620001a6565b5050506001600160a01b038116620000a357604051631e4fbdf760e01b81525f600482015260240160405180910390fd5b620000ae81620000b5565b506200026e565b600680546001600160a01b038381166001600160a01b0319831681179093556040519116919082907f8be0079c531659141344cd1fd0a4f28419497f9722a3daafe3b4186f6b6457e0905f90a35050565b634e487b7160e01b5f52604160045260245ffd5b600181811c908216806200012f57607f821691505b6020821081036200014e57634e487b7160e01b5f52602260045260245ffd5b50919050565b601f821115620001a1575f81815260208120601f850160051c810160208610156200017c5750805b601f850160051c820191505b818110156200019d5782815560010162000188565b5050505b505050565b81516001600160401b03811115620001c257620001c262000106565b620001da81620001d384546200011a565b8462000154565b602080601f83116001811462000210575f8415620001f85750858301515b5f19600386901b1c1916600185901b1785556200019d565b5f85815260208120601f198616915b8281101562000240578886015182559484019460019091019084016200021f565b50858210156200025e57878501515f19600388901b60f8161c191681555b5050505050600190811b01905550565b6119ef806200027c5f395ff3fe608060405234801561000f575f80fd5b5060043610610132575f3560e01c80637d760cac116100b4578063a5cad08a11610079578063a5cad08a1461028d578063b88d4fde146102a0578063c87b56dd146102b3578063d1bb4102146102c6578063e985e9c5146102d9578063f2fde38b146102ec575f80fd5b80637d760cac146102385780638da5cb5b14610258578063944c3c491461026957806395d89b4114610272578063a22cb4651461027a575f80fd5b806342842e0e116100fa57806342842e0e146101c65780636352211e146101d957806366cf8fab146101ec57806370a082311461020f578063715018a614610230575f80fd5b806301ffc9a71461013657806306fdde031461015e578063081812fc14610173578063095ea7b31461019e57806323b872dd146101b3575b5f80fd5b6101496101443660046113c3565b6102ff565b60405190151581526020015b60405180910390f35b610166610350565b604051610155919061142b565b61018661018136600461143d565b6103df565b6040516001600160a01b039091168152602001610155565b6101b16101ac366004611468565b610406565b005b6101b16101c1366004611492565b610415565b6101b16101d4366004611492565b6104a3565b6101866101e736600461143d565b6104c2565b6101ff6101fa36600461143d565b6104cc565b60405161015594939291906114d0565b61022261021d36600461150d565b61058a565b604051908152602001610155565b6101b16105cf565b61024b61024636600461143d565b6105e2565b6040516101559190611528565b6006546001600160a01b0316610186565b61022260085481565b6101666106e3565b6101b161028836600461156e565b6106f2565b61022261029b3660046115a9565b6106fd565b6101b16102ae366004611629565b610985565b6101666102c136600461143d565b61099d565b6101b16102d4366004611702565b610a0e565b6101496102e7366004611725565b610b5a565b6101b16102fa36600461150d565b610b87565b5f6001600160e01b031982166380ac58cd60e01b148061032f57506001600160e01b03198216635b5e139f60e01b145b8061034a57506301ffc9a760e01b6001600160e01b03198316145b92915050565b60605f805461035e90611751565b80601f016020809104026020016040519081016040528092919081815260200182805461038a90611751565b80156103d55780601f106103ac576101008083540402835291602001916103d5565b820191905f5260205f20905b8154815290600101906020018083116103b857829003601f168201915b5050505050905090565b5f6103e982610bc4565b505f828152600460205260409020546001600160a01b031661034a565b610411828233610bfc565b5050565b6001600160a01b03821661044357604051633250574960e11b81525f60048201526024015b60405180910390fd5b5f61044f838333610c09565b9050836001600160a01b0316816001600160a01b03161461049d576040516364283d7b60e01b81526001600160a01b038086166004830152602482018490528216604482015260640161043a565b50505050565b6104bd83838360405180602001604052805f815250610985565b505050565b5f61034a82610bc4565b60076020525f908152604090208054600182015460028301546003840180546001600160a01b039485169593851694909216929161050990611751565b80601f016020809104026020016040519081016040528092919081815260200182805461053590611751565b80156105805780601f1061055757610100808354040283529160200191610580565b820191905f5260205f20905b81548152906001019060200180831161056357829003601f168201915b5050505050905084565b5f6001600160a01b0382166105b4576040516322718ad960e21b81525f600482015260240161043a565b506001600160a01b03165f9081526003602052604090205490565b6105d7610cfb565b6105e05f610d28565b565b60408051608080820183525f8083526020808401829052838501829052606080850181905286835260078252918590208551938401865280546001600160a01b0390811685526001820154811692850192909252600281015490911694830194909452600384018054939492939184019161065c90611751565b80601f016020809104026020016040519081016040528092919081815260200182805461068890611751565b80156106d35780601f106106aa576101008083540402835291602001916106d3565b820191905f5260205f20905b8154815290600101906020018083116106b657829003601f168201915b5050505050815250509050919050565b60606001805461035e90611751565b610411338383610d79565b5f8060085f815461070d90611789565b9182905550905061071e3382610e17565b5f73__$2a1ebfdbbdaa184c0e473472e42eeb4dba$__6321519749868660405160200161074c9291906117ad565b604051602081830303815290604052878760405160200161076e9291906117c8565b604051602081830303815290604052336040518463ffffffff1660e01b815260040161079c939291906117e5565b602060405180830381865af41580156107b7573d5f803e3d5ffd5b505050506040513d601f19601f820116820180604052508101906107db9190611822565b60405163987e098360e01b81523360048201529091505f9073__$6ffee3db363039525742542e2cad744388$__9063987e098390602401602060405180830381865af415801561082d573d5f803e3d5ffd5b505050506040513d601f19601f820116820180604052508101906108519190611822565b90506040518060800160405280826001600160a01b03168152602001836001600160a01b03168152602001336001600160a01b0316815260200187878080601f0160208091040260200160405190810160405280939291908181526020018383808284375f92018290525093909452505085815260076020908152604091829020845181546001600160a01b03199081166001600160a01b03928316178355928601516001830180548516918316919091179055928501516002820180549093169316929092179055606083015190915060038201906109319082611882565b5050604080516001600160a01b0384811682528516602082015233925085917f5684f95e6547de6022f99036a1aa9ca8ee7b8f2501628003fdba41d1bb40a51a910160405180910390a35090949350505050565b610990848484610415565b61049d3385858585610e30565b60606109a882610bc4565b505f6109be60408051602081019091525f815290565b90505f8151116109dc5760405180602001604052805f815250610a07565b806109e684610f56565b6040516020016109f792919061193e565b6040516020818303038152906040525b9392505050565b33610a18836104c2565b6001600160a01b031614610a615760405162461bcd60e51b815260206004820152601060248201526f2737ba103237b6b0b4b71037bbb732b960811b604482015260640161043a565b610a6c338284610fe6565b5f82815260076020526040908190206002810180546001600160a01b0319166001600160a01b038581169182179092559154925163f2fde38b60e01b81526004810192909252919091169063f2fde38b906024015f604051808303815f87803b158015610ad7575f80fd5b505af1158015610ae9573d5f803e3d5ffd5b5050505f838152600760205260409081902060010154905163f2fde38b60e01b81526001600160a01b038481166004830152909116915063f2fde38b906024015f604051808303815f87803b158015610b40575f80fd5b505af1158015610b52573d5f803e3d5ffd5b505050505050565b6001600160a01b039182165f90815260056020908152604080832093909416825291909152205460ff1690565b610b8f610cfb565b6001600160a01b038116610bb857604051631e4fbdf760e01b81525f600482015260240161043a565b610bc181610d28565b50565b5f818152600260205260408120546001600160a01b03168061034a57604051637e27328960e01b81526004810184905260240161043a565b6104bd8383836001611093565b5f828152600260205260408120546001600160a01b0390811690831615610c3557610c35818486611197565b6001600160a01b03811615610c6f57610c505f855f80611093565b6001600160a01b0381165f90815260036020526040902080545f190190555b6001600160a01b03851615610c9d576001600160a01b0385165f908152600360205260409020805460010190555b5f8481526002602052604080822080546001600160a01b0319166001600160a01b0389811691821790925591518793918516917fddf252ad1be2c89b69c2b068fc378daa952ba7f163c4a11628f55a4df523b3ef91a4949350505050565b6006546001600160a01b031633146105e05760405163118cdaa760e01b815233600482015260240161043a565b600680546001600160a01b038381166001600160a01b0319831681179093556040519116919082907f8be0079c531659141344cd1fd0a4f28419497f9722a3daafe3b4186f6b6457e0905f90a35050565b6001600160a01b038216610dab57604051630b61174360e31b81526001600160a01b038316600482015260240161043a565b6001600160a01b038381165f81815260056020908152604080832094871680845294825291829020805460ff191686151590811790915591519182527f17307eab39ab6107e8899845ad3d59bd9653f200f220920489ca2b5937696c31910160405180910390a3505050565b610411828260405180602001604052805f8152506111fb565b6001600160a01b0383163b15610f4f57604051630a85bd0160e11b81526001600160a01b0384169063150b7a0290610e7290889088908790879060040161196c565b6020604051808303815f875af1925050508015610eac575060408051601f3d908101601f19168201909252610ea99181019061199e565b60015b610f13573d808015610ed9576040519150601f19603f3d011682016040523d82523d5f602084013e610ede565b606091505b5080515f03610f0b57604051633250574960e11b81526001600160a01b038516600482015260240161043a565b805160208201fd5b6001600160e01b03198116630a85bd0160e11b14610b5257604051633250574960e11b81526001600160a01b038516600482015260240161043a565b5050505050565b60605f610f6283611212565b60010190505f8167ffffffffffffffff811115610f8157610f81611615565b6040519080825280601f01601f191660200182016040528015610fab576020820181803683370190505b5090508181016020015b5f19016f181899199a1a9b1b9c1cb0b131b232b360811b600a86061a8153600a8504945084610fb557509392505050565b6001600160a01b03821661100f57604051633250574960e11b81525f600482015260240161043a565b5f61101b83835f610c09565b90506001600160a01b03811661104757604051637e27328960e01b81526004810183905260240161043a565b836001600160a01b0316816001600160a01b03161461049d576040516364283d7b60e01b81526001600160a01b038086166004830152602482018490528216604482015260640161043a565b80806110a757506001600160a01b03821615155b15611168575f6110b684610bc4565b90506001600160a01b038316158015906110e25750826001600160a01b0316816001600160a01b031614155b80156110f557506110f38184610b5a565b155b1561111e5760405163a9fbf51f60e01b81526001600160a01b038416600482015260240161043a565b81156111665783856001600160a01b0316826001600160a01b03167f8c5be1e5ebec7d5bd14f71427d1e84f3dd0314c0f7b2291e5b200ac8c7c3b92560405160405180910390a45b505b50505f90815260046020526040902080546001600160a01b0319166001600160a01b0392909216919091179055565b6111a28383836112e9565b6104bd576001600160a01b0383166111d057604051637e27328960e01b81526004810182905260240161043a565b60405163177e802f60e01b81526001600160a01b03831660048201526024810182905260440161043a565b611205838361134d565b6104bd335f858585610e30565b5f8072184f03e93ff9f4daa797ed6e38ed64bf6a1f0160401b83106112505772184f03e93ff9f4daa797ed6e38ed64bf6a1f0160401b830492506040015b6d04ee2d6d415b85acef8100000000831061127c576d04ee2d6d415b85acef8100000000830492506020015b662386f26fc10000831061129a57662386f26fc10000830492506010015b6305f5e10083106112b2576305f5e100830492506008015b61271083106112c657612710830492506004015b606483106112d8576064830492506002015b600a831061034a5760010192915050565b5f6001600160a01b038316158015906113455750826001600160a01b0316846001600160a01b0316148061132257506113228484610b5a565b8061134557505f828152600460205260409020546001600160a01b038481169116145b949350505050565b6001600160a01b03821661137657604051633250574960e11b81525f600482015260240161043a565b5f61138283835f610c09565b90506001600160a01b038116156104bd576040516339e3563760e11b81525f600482015260240161043a565b6001600160e01b031981168114610bc1575f80fd5b5f602082840312156113d3575f80fd5b8135610a07816113ae565b5f5b838110156113f85781810151838201526020016113e0565b50505f910152565b5f81518084526114178160208601602086016113de565b601f01601f19169290920160200192915050565b602081525f610a076020830184611400565b5f6020828403121561144d575f80fd5b5035919050565b6001600160a01b0381168114610bc1575f80fd5b5f8060408385031215611479575f80fd5b823561148481611454565b946020939093013593505050565b5f805f606084860312156114a4575f80fd5b83356114af81611454565b925060208401356114bf81611454565b929592945050506040919091013590565b6001600160a01b0385811682528481166020830152831660408201526080606082018190525f9061150390830184611400565b9695505050505050565b5f6020828403121561151d575f80fd5b8135610a0781611454565b602081525f60018060a01b0380845116602084015280602085015116604084015280604085015116606084015250606083015160808084015261134560a0840182611400565b5f806040838503121561157f575f80fd5b823561158a81611454565b91506020830135801515811461159e575f80fd5b809150509250929050565b5f80602083850312156115ba575f80fd5b823567ffffffffffffffff808211156115d1575f80fd5b818501915085601f8301126115e4575f80fd5b8135818111156115f2575f80fd5b866020828501011115611603575f80fd5b60209290920196919550909350505050565b634e487b7160e01b5f52604160045260245ffd5b5f805f806080858703121561163c575f80fd5b843561164781611454565b9350602085013561165781611454565b925060408501359150606085013567ffffffffffffffff8082111561167a575f80fd5b818701915087601f83011261168d575f80fd5b81358181111561169f5761169f611615565b604051601f8201601f19908116603f011681019083821181831017156116c7576116c7611615565b816040528281528a60208487010111156116df575f80fd5b826020860160208301375f60208483010152809550505050505092959194509250565b5f8060408385031215611713575f80fd5b82359150602083013561159e81611454565b5f8060408385031215611736575f80fd5b823561174181611454565b9150602083013561159e81611454565b600181811c9082168061176557607f821691505b60208210810361178357634e487b7160e01b5f52602260045260245ffd5b50919050565b5f600182016117a657634e487b7160e01b5f52601160045260245ffd5b5060010190565b8183823765102a37b5b2b760d11b9101908152600601919050565b615a2d60f01b8152818360028301375f9101600201908152919050565b606081525f6117f76060830186611400565b82810360208401526118098186611400565b91505060018060a01b0383166040830152949350505050565b5f60208284031215611832575f80fd5b8151610a0781611454565b601f8211156104bd575f81815260208120601f850160051c810160208610156118635750805b601f850160051c820191505b81811015610b525782815560010161186f565b815167ffffffffffffffff81111561189c5761189c611615565b6118b0816118aa8454611751565b8461183d565b602080601f8311600181146118e3575f84156118cc5750858301515b5f19600386901b1c1916600185901b178555610b52565b5f85815260208120601f198616915b82811015611911578886015182559484019460019091019084016118f2565b508582101561192e57878501515f19600388901b60f8161c191681555b5050505050600190811b01905550565b5f835161194f8184602088016113de565b8351908301906119638183602088016113de565b01949350505050565b6001600160a01b03858116825284166020820152604081018390526080606082018190525f9061150390830184611400565b5f602082840312156119ae575f80fd5b8151610a07816113ae56fea264697066735822122038c249e17482f86d3c9ef98e700552cadc3b136674daf9d9ad62e8a5ae77840464736f6c63430008140033",
  "linkReferences": {
    "project/contracts/OpsFactory.sol": {
      "OpsFactory": [
        {
          "length": 20,
          "start": 2673
        }
      ]
    },
    "project/contracts/TokenFactory.sol": {
      "TokenFactory": [
        {
          "length": 20,
          "start": 2461
        }
      ]
    }
  },
  "deployedLinkReferences": {
    "project/contracts/OpsFactory.sol": {
      "OpsFactory": [
        {
          "length": 20,
          "start": 2037
        }
      ]
    },
    "project/contracts/TokenFactory.sol": {
      "TokenFactory": [
        {
          "length": 20,
          "start": 1825
        }
      ]
    }
  },
  "immutableReferences": {},
  "inputSourceName": "project/contracts/DomainFactory.sol",
  "buildInfoId": "solc-0_8_20-57a3280c97e78a711a0fed9911d36d1c9e5103a2"
}